S011000074696D65725F746573742E6865783B
S113000081400141814101428142014381430144D4
S113001081440145814501468146014781471701D5
S113002001201301A1FD97010120938121FD9381FA
S113003001FC13020001910123A001007D12E30CD5
S113004002FE970100009381E10373905130EF00A9
S1130050F02D37820020130202C5B71100009381EE
S1130060110023203200F53737820020130202C525
S1130070B72100009381210023203200F5370100CD
S113008005A80100A5A001000100010085A0010050
S1130090B1A80100A1A801000100010081A801008C
S11300A0B1A00100A1A001000100010081A055B789
S11300B073100734232EF1FE232CD1FE7327203432
S11300C09377F70011839376F70F91C281165D83BE
S11300D03E9736970A07970700009387A732BA9787
S11300E098438327C1FF832681FF02877310073457
S11300F0232EF1FE232CD1FE732720349377F700AF
S113010011839376F70F91C281165D833E973697DC
S11301100A07970700009387E72EBA979843832727
S1130120C1FF832681FF0287130000001300000033
S1130130130000001300000013000000130000006F
S1130140130000001300000013000000130000005F
S1130150130000001300000013000000130000004F
S1130160130000001300000013000000130000003F
S11306900000000000000000000000000000A5674A
S11306A083A2872103A5420031AB411122C42EC08D
S11306B006C626C22A84EF20A02482456380051240
S11306C0B307B4003EC093F07500A564638A0008C4
S11306D00547638BE0068942638F50040D436384AE
S11306E060049143638870021545638DA000194628
S11306F0639EC00E83A584210345040005048C4534
S1130700EF20401F83A784210345040005048C4780
S1130710EF20401E83A0842103450400050483A523
S11307208000EF20201D03A7842103450400050455
S11307300C47EF20201C83A28421034504000504F8
S113074083A58200EF20001B03A38421034504003A
S1130750050483258300EF20E01982436380830826
S113076003A5842121040C45034584FFEF20801850
S113077003A68421034594FF0C46EF20A01783A60B
S113078084210345A4FF8C46EF20C01683A5842151
S11307900345B4FF8C45EF20E01583A7842103456E
S11307A0C4FF8C47EF20001503A784210345D4FF21
S11307B00C47EF20201483A284210345E4FF83A582
S11307C08200EF20201303A384210345F4FF832533
S11307D08300EF2020128243E39483F8EF20601219
S11307E0B2402244924405454101828083A684217B
S11307F00345040005048C46EF20C00FE5BD31110C
S1130800814706C82E869300A06AAA850A8506C277
S113081002C0D526C24051018280011132C810089D
S113082006C636CA3ACC3ECE32C0752EB2400561F9
S11308308280111136C8140806C63ACA3ECC36C0A6
S1130840EF10206BB24071018280011132C8100890
S113085006C636CA3ACC3ECE32C0EF20E007B240DC
S113086005618280130181FDFD1526CE06D222D0BA
S113087032833A863307B5002ACA3AC223000700F6
S1130880B6840DCE9300400263CAC002B3629300E3
S1130890639B020292449305000309461384F4FF08
S11308A0A38FB4FE85445245A285EF40D06F925089
S11308B002542685F244130181028280B3629300BC
S11308C02946E38902FC9243D24663F37618130463
S11308D0700263900716D24512459377F40F13C73D
S11308E0F5FFB300E5003ECC93F210009356F641B9
S11308F02A84638D02121304F5FFA6851A8532C675
S113090036C41AC0EF20C05A130305039373F30FC0
S1130910930790038245A246324663E3771023008F
S113092074002E852EC4A68532C636C0EF20A021C1
S113093085461246338786408246B30286403A96FD
S113094063EDD40E2243B243638096102A83AE80B3
S11309509E8435A8E2430243B3007500A30F13FE3F
S113096022452686BA8536C63AC0EF20C01D924677
S1130970054633078640B38286403306D700824754
S1130980B24663ECD70A638CF60A2A83AE801A85D2
S11309907D142686868536C81AC622C006C4EF2072
S11309A020519302050313F5F20F93059003A2431C
S11309B03243C24663F4A500E24006952300A40036
S11309C026869E851A8536C61EC41AC8EF20A0172F
S11309D01246D243854633878640B30286403A9610
S11309E0638D8304A240B24663E9D0044243638426
S11309F016048242268636C62AC42EC81384F2FF01
S1130A00EF20004B9305050313F5F50F1306900330
S1130A10B2464247E360A6F48247A38FA7FE89B794
S1130A206245B380A30023001400E5BDA680B28410
S1130A30B9BF1D444DB5E37E93FA9684ADB5A24388
S1130A40E3F593F4968485B5E37273F09684A1BDBF
S1130A501E848144054681BD511122C206C42A84E4
S1130A600345050035C1FD55EF10D068034514005A
S1130A7021CDFD55EF1010680345240031C5FD5507
S1130A80EF1050670345340021C1FD55EF10906607
S1130A900345440015C9FD55EF10D06503455400C6
S1130AA005C5FD55EF1010650345640011CDFD55D6
S1130AB0EF1050640345740001C9FD55EF109063B5
S1130AC003458400210445F1FD552945EF1090624A
S1130AD0A2401244014531018280B707F8FF938296
S1130AE0F7FF33F3B20009C9B703F8FFB3C5B30086
S1130AF04D8D1335150082803707F07FE316E3FE32
S1130B000545828089673787002093822700232840
S1130B1057C4232857C4828085673787002093826F
S1130B201700232857C4232857C4828021655111F4
S1130B30130585BE06C40D37B7070050094798C78B
S1130B409302004023A057000D4323A4670083A30E
S1130B50070185456384B304B700005083A60001F0
S1130B60638EB60203A60001630AB60203A5000160
S1130B706306B50283A700016382B70203A70001DD
S1130B80630EB70083A20001638AB20003A30001CD
S1130B906306B30083A30001E392B3FCB7050050DE
S1130BA0A160DC45138580BF453D09661305260019
S1130BB0A240B786002023A8A6C423A8A6C4014542
S1130BC0310182806F30D0791301C1FD2EC80C0829
S1130BD006C632CA36CC3ACE3ED02EC00D31B24013
S1130BE0130141028280B2862E86B705008093C528
S1130BF0F5FF6F1000301301C1F2A2C786C9A6C564
S1130C002AC42EC232C6EF3090701C4112432244D3
S1130C103ED802C01AC42245130750028346050079
S1130C20C9C6B680AA848145638BE00683C01400DC
S1130C3085048505E39A00FE8323440010402EC2F8
S1130C4082938242924583C604001307500233857F
S1130C50B2002AC02685E395E6FC130600020505CA
S1130C60814402C88147814302CE02D402D002CC1F
S1130C7032D2834005001307A007130315008686AC
S1130C80636C1702A1651386C5C193922000338754
S1130C90C2000C4382851AC4A3011104ADBFC9FD6F
S1130CA0E390E6F85DBF7D5422C0CE403E44024549
S1130CB0AE441301410D82801AC4A3011104A1BFE3
S1130CC03EC4A30111041EC2E39F03FC2946CC00C9
S1130CD0EF50A06E034331042AC813050003924366
S1130CE0A247E30CA360164569B7A30111049380DE
S1130CF0170093F6F00F938716009392870193D70A
S1130D0082411A85BDB7130591041AC4A3011104C5
S1130D10AAC2635FF0028546E38AD75E3243832624
S1130D204300032603009305830063C406006F1089
S1130D308013B337C0003307D040B306F7403306FF
S1130D40C0402EC602C20147A94009436F00100CDF
S1130D50B24585409041138745003AC66355060065
S1130D603306C040894002C2A946014763D907003F
S1130D70FD52639457006F10400E1376F60F9305DF
S1130D80B0071ED606CAEF10B03BB253D242164784
S1130D903ACA638503008546E306D50812473A95A7
S1130DA02AC242468940B3E5C400E38B120063843F
S1130DB00246A252F24733E3F200630E0344524662
S1130DC03305F0409376B5009302F6FF96C2938004
S1130DD00602A30F16FE1646924732CA1383170063
S1130DE0639F057E1AC29244104058405245A6851E
S1130DF0029782453386950032C031BD1AC432430E
S1130E0042451307910403260300832543009306F8
S1130E108300A301110436DA32C22ED6BAC2E30229
S1130E200544E383033EF243E380036A1243B2536F
S1130E3042479306F00713069104A6871A859E85F8
S1130E4006CAEF10E01372475246AA863AC6164500
S1130E509305E00236DE32DC2ACAEF409048E252C3
S1130E60F2572A83E3150564E24063840002D24604
S1130E709303E0023386F600230076009645338719
S1130E80F500A300070096401306700606CAE38621
S1130E90C2502253F243B3677300E393076652458B
S1130EA0EF50C013B2472AC299E36F00D07742468D
S1130EB0D24682539300F6FF1307F5FF9382160080
S1130EC005433AC296C206C81ACC5C401040854518
S1130ED0639D0376D2539252930400031EC6639C0F
S1130EE09200524582976246824502CCB387C50080
S1130EF03EC010405C40424312473D45B306E340C8
S1130F0036C8E35FD55A9254138506FFA1609383D4
S1130F1004FD93B21300368793564500138380E093
S1130F209395420093F07600B304B30063810010FC
S1130F302ACEC145268506D0829772473D46635224
S1130F40E610825285435C4010406382720E8945EC
S1130F506389B2060D43638D620411456381A20463
S1130F6095466385D2029940638A1200C14526855D
S1130F708297C2471040138707FE5C40C14526850F
S1130F803ACE829772475C4010404117C14526858E
S1130F903ACE829772465C40130706FF1040C14563
S1130FA026853ACE8297F2435C401040138703FFB4
S1130FB0C14526853ACE8297F2425C4010401387A1
S1130FC002FFC14526853ACE8297F2455C40104027
S1130FD0138705FFA9A8832344001040C145268533
S1130FE01ACE829358401040C145268502970323A8
S1130FF044001040C1452685029354401040C14529
S1131000268582965C401040C145268582978323BD
S113101044001040C1452685829358401040C14584
S113102026850297F2425C401040138702F8C145BE
S113103026853ACE82977243BD46130503FFE3CC5F
S1131040A6F8C2441040938004FF93F700FF9384F2
S113105007015C4093F5F0002EC86352B00292522F
S1131060A163938683E0138702FD133317001315DE
S113107043003695829742465C40B29410408240C9
S1131080E245869499C552458297E2471040BE9442
S11310905C4092451645829712473385E4002AC086
S11310A09DBE3245A301110483200500930245002F
S11310B016C606C81A8575BEB2441AC483A30400B2
S11310C0138544002AC6A3017104832344001040FD
S11310D085451305310482938244938714003EC0EE
S11310E01DBE83431500A30111049304A002E39CD5
S11310F0930EB2400905854383A200009385400006
S11311002EC613C3F2FF1357F341B3F4E20095B6AE
S11311100547A30111041A853AD4A1BE1A85130305
S1131120F00FA30111041ACCA9B642551AC4A301A5
S11311301104EF409068AAC22AC2EF40306AAA8420
S1131140AA8558401040124502978243B387930002
S11311503EC0D1B41AC46243A3011104E30C0306D4
S11311609306000305468545A304D104A140130555
S1131170A104A14632CC01472EC2930291042DA8AA
S1131180130580071AC4A301A104930080078547AF
S11311900147930200030946A304510423051104E3
S11311A01305B10432CC32C293029104C24063F3FA
S11311B0900026C8C140C14696C26357F042054616
S11311C0639FC742B2401383400003A600001AC6BF
S11311D0814075B6B2471AC4A301110403A30700E2
S11311E0138547001ACAE30403082ACE1A851EC6CB
S11311F09AC2EF40B05E2AC2B2437245E38A031238
S1131200924363F3740026C2C245930700022AC6C0
S1131210814481433ED2E38805BCE2456380057A7C
S1131220E2471243BE853305F3402AC2C240524707
S113123082523386B040B306B70032C8B6C25C40AF
S1131240104063960240E38A03421245AA80636118
S11312509578C245BD46338315401AC8E3DC663E23
S1131260930303FF93D2430013F572001A87E3013B
S1131270051221672AD0C145130587E01ECE829747
S113128072473D466350E614025385405C4010406B
S1131290E300131089456304B3088D466306D3063F
S11312A09143630873049542630A53021945630C1E
S11312B0A3002167130587E0C1458297C247104008
S11312C0138707FE5C40A160C145138580E03ACED8
S11312D0829772465C40130706FF10402163C145A4
S11312E0130583E03ACE8297F2455C4010401387A1
S11312F005FFA166C145138586E03ACE8297F24385
S11313005C401040138703FFA162C145138582E04E
S11313103ACE829772455C401040130705FFA160E6
S1131320C145138580E03ACE8297F247104026CE1D
S1131330138307FFA2845C401A848DA8D440904094
S1131340A160138580E0C145829683A34400904048
S1131350A162138582E0C1458293DC4090402165FF
S1131360C145130585E0829703A34400904021679B
S1131370130587E0C1450293D4409040A1631385CF
S113138083E0C1458296DC409040A162C14513854B
S113139082E08297904003A344002165C145130570
S11313A085E00293DC409040130404F8A166C14533
S11313B0138586E08297130604FFBD45E3C0C5F894
S11313C02684F244C2435C401040938203FF13F529
S11313D0F20013F702FF2AC893050701C240635EB7
S11313E0100021632ECE130583E086858297C247C1
S11313F0F2461040B385F6005C4082436245B382F6
S1131400B30016C819C9AA85524582974246624755
S11314105C403303E60010401AC89240B38614407F
S113142036C0BD44E3D9D420938506FF13D54500C7
S1131430A16213777500B683938482E1630F07700A
S11314402ECA138582E1C1453ACC8297D243BD4767
S113145063D67710E24005435C401040638F606EB2
S11314608946638CD0068D4263805006914563841F
S1131470B00415456388A0021947638CE000A1639A
S1131480138583E1C145829702465C40930306FEBF
S11314901040C14526851ECA8297D24710409383C7
S11314A007FF5C40C14526851ECA829752435C40B3
S11314B01040930303FFC14526851ECA8297D24676
S11314C05C401040938306FFC14526851ECA82975F
S11314D0D2425C401040938302FFC14526851ECA58
S11314E08297D2455C401040138705FF3A85A9A82E
S11314F05C4032CA1040C1452685829703234400CC
S11315001040C1452685029354401040C1452685AC
S11315108296832344001040C14526858293584017
S11315201040C145268502975C401040C145268580
S11315308297104003234400C145268502935246F6
S11315405C40130506F810402ACAC14526858297D7
S113155052463D43930706FFE34CF3F882445C4054
S11315601040938004FF93F6F00093F200FF36C01E
S113157093840201635BD000B685A166138586E17E
S1131580829782435C4010409E94C245AE9411B64B
S1131590A30111049380F7FF9392800193D78241B2
S11315A01A856FF00FEDA301110493F6F70F6FF096
S11315B08FF48546A30111041A8536CE6FF06FEBC4
S11315C052459306D00292401307F5FFBAC2A30F07
S11315D0D5FE16461383100032CAE3850580E24522
S11315E0638005561AC22DB93243814093054300E6
S11315F02EC603260300639D07F66FF04FF8B2452D
S113160001439041D441938785003EC6BA87930530
S1131610B00706871ED61ACAEFF0CFA4D242B2533F
S11316206FF0EFF65246924013030003B305160021
S113163083C70500639467F663890450E2466382B6
S113164006F602CC02C26FF0CFF552552AC65245B7
S113165082978243E2451040B387B3003EC05C40AA
S113166012433D47338564402ACA6354A74E93020C
S113167005FF93D6420093F376002A87A160638521
S1131680034AC145138580E11ECE16CC829762477A
S11316903D466351E614724385455C401040630542
S11316A0B34809456304A3088D40630613069142B9
S11316B0630853049546630AD3029943630C730089
S11316C02167130587E1C1458297D24710401387EC
S11316D007FE5C402163C145130583E13ACC829740
S11316E062465C40130706FF10402165C14513059F
S11316F085E13ACC8297E2455C401040138705FFB0
S1131700A160C145138580E13ACC8297E2425C40F6
S11317101040138702FFA166C145138586E13ACCC8
S11317208297E2435C401040138703FF2163C14565
S1131730130583E13ACC8297E247104026CC138507
S113174007FFA2845C402A8495A8DC409040A162F3
S1131750138582E1C145829783A3440090402167A9
S1131760130587E1C145829303A34400904021659A
S1131770C145130585E10293D4409040A1671385C8
S113178087E1C145829683A344009040A1621385FA
S113179082E1C145829303A3440090402167C1457F
S11317A0130587E102939040D4402165C145130598
S11317B085E18296DC409040130404F8A160C145A1
S11317C0138580E18297130604FFBD45E3CFC5F678
S11317D02684E244D2425C401040938602FF93F395
S11317E0F60013F706FF1ECA930507015243635E12
S11317F0600021652ECC130585E19A858297D24736
S11318006246B305F6005C40104082401645B38240
S1131810B000924516C0829712438246B383660095
S11318201EC2637393002683C2443D4533876440DC
S11318303AC06352E532930407FF93D7440013F68A
S1131840770032C854401040A160C145138580E040
S11318508296BD45C24263D795126385020A8543C9
S1131860638672080943638A62060D47638FE20444
S113187011456384A20495476388F2021946638C78
S1131880C20044401040A166C145138586E082949D
S11318908245938405FE832344001040A160C14522
S11318A0138580E08293C114032344001040A16295
S11318B0C145138582E00293C1145840104021654C
S11318C0C145130585E00297C11454401040A16737
S11318D0C145138587E08296C114832344001040D8
S11318E0A160C145138580E08293C1141040032395
S11318F04400A162C145138582E00293C1143D46B0
S113190063529608544010402167130587E0C1458F
S113191082965C4010402165C145130585E082979D
S11319208323440010402163130583E0C14582935F
S113193054401040A162138582E0C14582965C4008
S113194010402167130587E0C14582978323440033
S113195010402165C145130585E0829303234400AB
S11319601040A166C145138586E002935C40104097
S1131970A162C145138582E08297938404F8BD4532
S1131980E3C295F88240938400FF13F7F40013F642
S113199004FF3AC093040601635CE000832344001F
S11319A01040BA852167130587E082930245AA9403
S11319B01243B306930036C06FF0EFA502575C40A4
S11319C01040E31F07C86397034A02CC6FF0AFD2FD
S11319D0A68041B0930291040147A1401685A14617
S11319E002C26FF06FFD2946CC001A853EC2EF405B
S11319F0D0009346F5FF93D7F641B374F5008543C1
S1131A00164592476FF0EFA6F242638A021412431E
S1131A10B253424799479306F007130691041A8577
S1131A209E8506C6B12B1647B244930770063ACA80
S1131A306386F4401245B25581460146EF20C03C0E
S1131A40F24699449302B00236C6634A05C452462C
S1131A509300F6FF86C2A30F56FE16431ACA6FF010
S1131A600FC485473EC8E38103FA6FF0CFBBA16082
S1131A70938640C19942138640C1B6C216C232CA87
S1131A806FF0CFF7A30111041A856FF08F9E1AC46B
S1131A90A30111040147E246639D06EE93029104FB
S1131AA0168502C26FF08FF093029104A301110412
S1131AB01AC4A9401685A946014702C26FF0CFEFA8
S1131AC01AC4A30111046FF04FE00546A301D10429
S1131AD01A8532D06FF0EF991AC4A3011104054797
S1131AE05DBF93029104A30111041AC489401685B1
S1131AF08946014702C26FF02FEC02576315079E17
S1131B009305000316452ED26FF0AF96B2421386AA
S1131B10420032C603A60200634406A4A946014754
S1131B2002C285406FF0AFA526CCA2843A8479B175
S1131B3013070002C2452AC681443AD26FF0AFEDC2
S1131B408542854516CC6FF06FEE02C202CC6FF071
S1131B504FA5814561B9814481B51E85F5B2B25462
S1131B6012450146A685814606CAEF204035124338
S1131B7042479356F50136C6A68599479306F00762
S1131B80130691041A85ED2ED24299446FF0AFAF3B
S1131B9026CEA2843A846FF07F8152459305E002F9
S1131BA0EF3030742A86630605AE930550063285FD
S1131BB032CAEF301073D247AA8583C30700638DFE
S1131BC0030403C5170085073E8739C583C617007C
S1131BD08507B9C28342270093072700638E020258
S1131BE0034637009307370005CA8340470093072D
S1131BF04700638300020343570093075700630DB4
S1131C000300834367009307670063870300930718
S1131C1077000347770055F763830500AE87130504
S1131C200003BE8203C6F7FFFD17BE866312A60635
S1131C30BE8203C6F7FFFD17631CA60403C6E6FFB6
S1131C40BE829387E6FF6315A60403C6D6FFBE8251
S1131C509387D6FF631EA60203C6C6FFBE82938780
S1131C60C6FF6317A60203C6B6FFBE829387B6FFFC
S1131C706310A60203C6A6FFBE829387A6FF63195C
S1131C80A60003C696FFBE82938796FFE30BA6F8D1
S1131C909300E0026303160096872380070081C542
S1131CA03E85EF30707396452ECA6FF08F9EADE877
S1131CB06245B337A0009A97238007006FF0AF9C6A
S1131CC08144B6856FF06FB9B2551245014681461D
S1131CD006CAEF20C01E1243B25342479352F50185
S1131CE09306F00713069104A6871A859E8516C6E7
S1131CF0412C5246AA866FF08F95F240994406C64D
S1131D001245B25501468146EF20001063490598FB
S1131D107247B306E04093F2B6009382020205BB19
S1131D2093F0740093071500638C00068546638363
S1131D30D0060946638BC0048D43638270049145C9
S1131D40638AB00215476382E00219456389A000E3
S1131D509307230003432300E30003F6FD1483C029
S1131D6017008507E38A00F4FD1483C6170085076E
S1131D70A1D6FD1403C6170085071DDEFD1483C319
S1131D8017008507E38A03F2FD1483C5170085074E
S1131D9085D5FD1403C71700850719DFFD1489DCF9
S1131DA003C3170085073E85E30803F083C61700C5
S1131DB0FD148507A680E38106F003462500FD1483
S1131DC093072500E30A06EE834335009384E0FF7E
S1131DD093073500E38203EE834545009384D0FFE7
S1131DE093074500E38A05EC034755009384C0FF3D
S1131DF093075500E30207EC034365009384B0FFA7
S1131E0093076500E30A03EA930775000345750029
S1131E109384A0FFE30205EA938490FFD1F023802A
S1131E2007006FF04F8602555C40104039C9D25507
S1131E302EC66FF0FF8281446FF0CFF352459305B5
S1131E40E002EF30104A2A86E30905EA7243994416
S1131E501AC6A1BB81456FF06FD89317060113D63C
S1131E6007016FE0DFF12EC6A9400543014702C216
S1131E706FF0CFF902CC6FF04FBDB24006DA6FF0CD
S1131E806F85D25402CC26C66FF0EF865C421846AA
S1131E90411126C206C622C4AE86B304F740630EBF
S1131EA0F702328463E19504832004006384000212
S1131EB0AA8526863385F00036C0EF30207C1C408E
S1131EC083224400824633839700B3035300238064
S1131ED003005C403385F40048C0B240224492447D
S1131EE036854101828083200400AE84E39200FCA5
S1131EF0D5B71301C1FD26CC06D0AE8422CE2AC6A6
S1131F0002C8B2853686B9C089632A841385C3E8BA
S1131F101387F4FF1303C1002AC448003ACA3AC025
S1131F201AC2EFE05FCD09CC634C0500FD55638F09
S1131F30B402636D95028246B304D4002380040086
S1131F4082507244E24413014102828089607C0021
S1131F509382C0E8480002CA3EC216C4EFE0BFC97B
S1131F6082507244E2441301410282803306A40089
S1131F702300060082507244E2441301410282802D
S1131F801301C1FAA2C6A6C486C82AD22ECEB28430
S1131F9032D0368436C0BAC03ED6EF00B01629C55A
S1131FA022CCE35480089300900623801400054358
S1131FB0630564029306E006A380D4008943630E9C
S1131FC0740093026006238154008D476306F45223
S1131FD0825411473ACCA3810400C640364462457A
S1131FE0A6441301410582801255F245EFE0FFAE8D
S1131FF02ACC631E05521255F24501468146EF1064
S1132000F0586304056CF244125501468146A685D6
S1132010EF10F06A634B054E8250F24206CA16C8AE
S11320203255A56483A7042683A54426630A050EB6
S1132030A56083A2002703A340279373750016C4E9
S11320401AC60144E38803060546638BC3060947A1
S11320506381E3068D466387D3041145638DA30230
S11320609544638393029940638913002246B246E0
S11320703E850544EF101070AA872246B2463E857D
S11320800504EF10306FAA872246B2463E85050448
S1132090EF10506EAA872246B2463E850504EF1023
S11320A0706DAA872246B2463E850504EF10906CF7
S11320B0AA872246B2463E850504EF10B06BAA8774
S11320C02246B2463E850504EF10D06AB252AA8772
S11320D09684638782042246B2463E852104EF102B
S11320E070692246B246EF10F0682246B246EF10FD
S11320F070682246B246EF10F0672246B246EF10EF
S113210070672246B246EF10F0662246B246EF10E0
S113211070662246B246EF10F065AA87E39D84FA02
S1132120AE861255C2453E86EF10C00D25630326C8
S113213083278326C3272AC42EC8EF105058635E12
S113214005005246024793030003930016009306CA
S1132150F7FF2300760036C006CAF247A56413D4FD
S113216047019372F47F138512C0EF20301003A649
S1132170042883A64428EF10F05FEF20F0089305AD
S11321801500AEC26350B05C2ED4A94363D9B372B8
S1132190930265FFA94533D3B202A56683A08628BE
S11321A083A7C62825673ADC06D83EDA03248726A7
S11321B08324C7269303130013F67300630F066E7C
S11321C00547630AE60A8946630BD6088D40630C0B
S11321D016069147630DF6049542630E560299451F
S11321E0630FB6004256D2562AD4A6852285EF1034
S11321F070582A842255AE84130375FF1AD44256AC
S1132200D2562285A685EF10F056A2532A84AE84B6
S1132210138663FF32D4D25642562285A685EF1028
S1132220705522572A84AE84930667FF36D44256EB
S1132230D2562285A685EF10F053A2572A84AE8485
S1132240938267FF16D44256D2562285A685EF1094
S11322507052AE84A2552A84138565FF2AD442564F
S1132260D2562285A685EF10F05022532A84AE84DC
S1132270930363FF1ED44256D2562285A685EF10DF
S1132280704F225629472A84930666FF36D4AE84BB
S11322906370D706425636D4D2562285A685EF10EF
S11322A0704D4254D2542286A686EF10B04C22863A
S11322B0A686EF10304C2286A686EF10B04B2286FD
S11322C0A686EF10304B2286A686EF10B04A2286EF
S11322D0A686EF10304AA6862286EF10B049A25790
S11322E0A9422A84938607FBAE84E3E5D2FA36D466
S11322F0854063841610E255228503A6852683A6AD
S1132300C526A685EF101047225305462A84930359
S1132310F3FFAE846383C30EE25603A6862683A628
S1132320C626EF103045225785422A849307E7FFDB
S1132330AE846384570C6254032684268326C42601
S1132340EF105043225305462A849303D3FFAE84EF
S11323506385C30AE25483A6C42603A68426EF1029
S11323607041A25605472A849387C6FFAE846386CC
S1132370E708E25003A6802683A6C026EF10903F0C
S1132380A25285432A841383B2FFAE846307730683
S11323906254032684268326C426EF10B03D2256B9
S11323A085472A849306A6FFAE846388F604E25424
S11323B003A6842683A6C426EF10D03B22570543E8
S11323C02A84930297FF16D4AE8463886202E25093
S11323D003A6802683A6C026EF10D039225689434F
S11323E02A84AE84630B76006254032684268326F3
S11323F0C426EF1030382A84AE84256503260529C7
S113240083264529A685228532D836DAEF10D01FD7
S113241085452ED46356A008E25703A7872683A2D6
S1132420C7263ADC16DE2245C2452286A686EF1070
S1132430C03CEF20605DA2531373F50F6384030067
S11324406302030452468245930003039306160075
S11324502300160036CA638905321375F50FEF2081
S1132460E0602286A686EF10F0302A86AE862245EA
S1132470C245EF10B0782AC402452EC802D493078F
S1132480F5FF3EC06256F2562285A685EF10E0366F
S11324904256D2562A84AE84EF101017E345A0F8B2
S11324A0D24202576388E238B255DDED5245825775
S11324B00647B307F5409382170063FDE21E02430B
S11324C0E30D03B0524682558647930616003385C2
S11324D0B640938217009300E0023387A2402300A2
S11324E0160036CE3AD67D13E369E3AE631E0708C1
S11324F0F2442ACC26CAC1A20D4422CCC64036449A
S11325006245A6441301410582800257824637037F
S11325100080B34393001306D0021384F6FF93079D
S113252017001EC82300C70022C03ECAD5BC824380
S11325301ECC635C702E02569302E006854723008E
S11325405600E38CF3A893041006A30096000947F1
S1132550E385E3A8230156000D45E38FA3F89145D5
S1132560A30106002ECC95BC8243E38803A6524601
S1132570B2559300E002230016009386F3FFE3EEC6
S1132580B6A4130516002ACEB2522563F24783235C
S113259083268320C326338757003ACA1EC006C247
S11325A013F6120029CE2245C2452286A686EF10D4
S11325B0C024EF206045F245930605031375F50F1B
S11325C0938715002380D5003ECEEF20204A228633
S11325D0A686EF10301A2A86AE862245C245EF1031
S11325E0F061024692462AC42EC82285A685EF10C1
S11325F0C0202A84D2427245AE846309550AA2835C
S1132600A6872244C2441E86BE862285A6851EC88D
S11326103EC4EF10801EEF20203F724313070503D2
S11326201375F50F2300E300EF2040444246A24611
S1132630EF1050142A86AE862285A685EF10105C12
S1132640AA842E84024692464245A245EF10E01A1F
S11326502A86AE862AC82EC42685A285EF10E019E4
S1132660EF20803A7247930205031375F50FA30018
S11326705700130327001ACEEF20403F4246A246DC
S1132680EF10500F2A86AE862685A285EF101057CC
S1132690024692462A84AE844245A245EF10E015D4
S11326A0F2425247AA83AE87E39FE2F45246825332
S11326B0B30776403ECCD242624523800200C64036
S11326C03644A644130141058280325751E3024542
S11326D0B335A000B300B04013F390FF130483009C
S11326E0F244814363C7041693841300054663765A
S11326F094128256930500031EC033857600EF3092
S113270060190146637E94108257B382C40016CCCC
S1132710B3845700025703450700930505FDB33002
S1132720B00033031700930613001304E002238060
S1132730860023800400C64036446245A644130143
S1132740410582802563032403278324432789BB0F
S113275082461304270063ED860C825445DCF24262
S11327608143E3D302F832551307D0022380E400F7
S113277013043500854563E4850EA680054385046E
S1132780938620001ACC55B71255F2452286A686A8
S1132790EF10A006B257064702568146EFF04FFEEF
S11327A0E30D0582D2409644130650063383A000FD
S11327B0930613002300C30036CA1304703E9347E4
S11327C0F5FF6340940A9303300663CF930AA5424E
S11327D063D69202638E070096462944D243B3C45B
S11327E086029382130016CA138604032380C3004F
S11327F016452947FD17B365E502AEC2E38807EA2B
S11328005244964085449306140013830003230026
S1132810640036CA638397FC51BD33067440D1BD4E
S113282082437D1433067440C5B502CC6FF0EFFAD1
S113283021447DB50243630203FA52469303F3FF36
S113284093000003930616001EC02300160036CA28
S1132850A1B982571306D00205042380C70085431B
S113286061B581CF1307803E33C5E4029300230092
S113287006CA93050503A300B30096461303803EDE
S1132880FD1733E46602A2C291CF164693044006B4
S11328905247B3439602130517002ACA93820303CF
S11328A023005700964093054006FD1733E3B0021A
S11328B09AC20DB7AA846FF01F82A256E1BA2566A8
S11328C0032486268324C62632DCAE8615B4B2865B
S11328D02E8685456F20E06E31118D6706C82AC0AB
S11328E09380E78C0A8506C2EFE0EFB0C240510145
S11328F0828009A0B7060220938606FF88C28280E0
S113290082808280630C0500B702F0FFB3C5B20079
S11329104D8D133315003305604082803707F07FF7
S1132920E394E5FE054582805111A56706C483A0A2
S1132930872183A58000753FA24001453101828033
S11329405111FD1506C422C226C0B307B500328357
S1132950238007009380F6FF13063002637316008A
S1132960A94663120302930600039385F7FFA38F1E
S1132970D7FE85440946EF201063A2401244268501
S1132980824431018280637CF51A930070026312E1
S113299007181344F5FFB384870013F43400BE858D
S11329A093039003854249C83377D3029385F7FF95
S11329B0130607039374F60F63E8931423809500BA
S11329C03386B2403357D302B384B7403E96E364B0
S11329D0D3FA85443A836301940609466309C40221
S11329E0FD153373D702130403039374F40F63F5D3
S11329F09314338614002380C5003384B2403353C8
S1132A00D702B384B7403306F400E366D7F6FD1566
S1132A103377D3029304070313F6F40F63E9C31067
S1132A202380C5003386B2403357D302B384B74002
S1132A303E96E362D3F43A83FD152E87B374D30232
S1132A40138404031376F40F63F3C3000696238000
S1132A50C5003386E2403354D302B384E7403E9644
S1132A60E30BE5F0E369D3F09305F7FF3373D40286
S1132A709304030313F6F40F63FFC3063303160032
S1132A80A30F67FE3386B2403353D402B384B740F6
S1132A903E96E362D4EE9305E7FF3374D3029304C6
S1132AA0040313F6F40F63FBC30433041600230F6B
S1132AB087FE3386B2403354D302B384B7403E9684
S1132AC0E36BD3EA9305D7FF3373D4029304030370
S1132AD013F6F40F63F7C30233031600A30E67FE65
S1132AE03387B2403353D402B384B7403306F7007C
S1132AF0E374D4F449B5A30FC7FE69B7230FC7FE27
S1132B004DBFA30EC7FEE9BF338714002380E50041
S1132B1045BD1344F5FFB384870013F434009D408E
S1132B20BE85930390038542E31004E831B7330470
S1132B30160023808500FDB5238095007DBDBE85EC
S1132B40814405460DBD611122C226C0AA82AE870A
S1132B50639E0620B6853283AA8397560000938627
S1132B60663463F2C70C41673E856377E60A130750
S1132B70F00F3337C7000E07B355E600AE9683C691
S1132B8006003697930600023384E640638CE60021
S1132B90B396870033D7E200331386003365D7003A
S1132BA0B393820093550301B356B5021316030180
S1132BB0418293D703013377B5023685B302D60237
S1132BC04207D98F63FC57009A971385F6FF63E792
S1132BD0670063F557001385E6FF9A97B38757405C
S1132BE033F7B702C20393D30301B3D7B702420743
S1132BF0B36377003306F6023E8763FBC3009A9300
S1132C001387F7FF63E6630063F4C3001387E7FFEA
S1132C104205598D814555A8B70500014147E36D2B
S1132C20B6F4614791BF01E605473353C7024167D4
S1132C306371E30A1307F00F63736700A145335709
S1132C40B300BA9603C70600930600022E97338595
S1132C50E6406397E608B3876740854593520301CE
S1132C6013160301418213D70301B3F65702B3D7F6
S1132C705702C206558F3304F6023E85637C8700F3
S1132C801A971385F7FF63676700637587001385D9
S1132C90E7FF1A97018FB3775702C20393D3030157
S1132CA033575702C207B3E377003306E602BA8705
S1132CB063FBC3009A939307F7FF63E6630063F42F
S1132CC0C3009307E7FF42055D8D1244824421014E
S1132CD0828037070001C145E363E3F6E14585B728
S1132CE03313A300B3D6E700B393A200B397A700AE
S1132CF01355030133D7E200B3D2A6023366F700BB
S1132D0093170301C1839355060133F7A602B386D3
S1132D10570242074D8F9685637CD7001A97938597
S1132D20F2FF636767006375D7009385E2FF1A9724
S1132D30B306D74033F7A602B3D6A60242073385BB
S1132D40D70293170601C183D98F368763FCA70086
S1132D509A971387F6FF63E7670063F5A700138765
S1132D60E6FF9A97C205898FD98DCDBD63EFD51241
S1132D70416763FFE6021307F00F3337D7000E07EE
S1132D8033D5E600975500009385C511AA9583C5F0
S1132D900500130500022E97B305E5406311E50213
S1132DA00545E3E4F6F233B6C2001345160031BF1D
S1132DB0B70500014147E3E5B6FC6147D1B733539A
S1132DC0E600B396B6003363D300B3D3E7001354DD
S1132DD00301B3F6830213150301418133D7E200E3
S1132DE0B397B700D98F13D707013316B600B3D3FF
S1132DF08302C206D98EB30475021E8763FC960053
S1132E009A961387F3FF63E7660063F596001387CA
S1132E10E3FF9A96858EB3F38602C207C183B3D6C5
S1132E208602C203B3E7F3003305D502B68363FC1D
S1132E30A7009A979383F6FF63E7670063F5A700FB
S1132E409383E6FF9A97898F4164131507013365CD
S1132E5075001307F4FFB373E50093560501718FF2
S1132E6041823383E3023387E602B383C302B3862A
S1132E70C602BA93135603011E966373E600A29624
S1132E8013570601BA9663E0D702E395D7D8C16712
S1132E90FD177D8E42063373F300B392B2001A9687
S1132EA08145E3F4C2E27D15B5B38145014531BDE9
S1132EB0511122C426C2AA872E87639A061C368320
S1132EC03284975600009386E6FD63FAC50AC16210
S1132ED06370560A9302F00F63F3C2002143B352A6
S1132EE06600969683C60600369393060002B38264
S1132EF06640638C6600B395550033536500331404
S1132F0056003367B300B317550093530401337667
S1132F10770213150401418193D6070133577702D1
S1132F204206D18E3307E50263F8E600A29663E514
S1132F30860063F3E600A296998E33F77602C20701
S1132F40C183B3D67602B306D50213150701C98F20
S1132F5063F8D700A29763E5870063F3D700A297CD
S1132F60958F33D5570081452244924431018280A4
S1132F70B70200014143E36456F661438DB701E6AD
S1132F8005473354C70241676371E4081307F00F20
S1132F9063738700214333576400BA9603C606005F
S1132FA0130700023293B302674063176706818DEB
S1132FB09356040113150401418113D6070133F715
S1132FC0D502B3D5D5024207518FB305B502637854
S1132FD0B7002297636587006373B7002297B30530
S1132FE0B74033F7D502C207C183B3D5D502420730
S1132FF0D98F3305B50263F8A700A29763E587006C
S113300063F3A700A297898FA9BF37070001414343
S1133010E363E4F8614341B733145400B3D6650065
S1133020B3175500335365001355040133F7A60253
S1133030B39555003366B30093150401C18113534E
S11330400601B3D6A602420733676700B386D502EA
S11330506378D7002297636587006373D70022974C
S1133060B306D74033F7A602B3D6A6024207B38607
S1133070D50293150601C181D98D63F8D500A295B7
S113308063E5850063F3D500A295958D15B7E3ED4F
S1133090D5EC416363F566049302F00F33B3D200B9
S11330A00E03B3D36600975200009382A2DF9E9270
S11330B083C202009A9213030002B30353406317BE
S11330C0530263E4B6006369C500B307C540958D38
S11330D03335F5003387A5403E85BA8571B5B7020F
S11330E000014143E3EF56FA614365BFB3967600AE
S11330F0335356003363D300B3D455001354030140
S113310033575500B317750033D584023EC0B395C9
S11331107500D98D13170301418333167600B3F775
S11331208402B304A7029396070193D70501D58FB0
S1133130AA8663FC97009A979306F5FF63E76700F6
S113314063F597009306E5FF9A97858F33F5870219
S1133150C205C18133D487024205C98D3307870272
S1133160A28763FCE5009A959307F4FF63E7650083
S113317063F5E5009307E4FF9A95C2064164DD8E8A
S11331803387E5409305F4FFB3F7B6009354060183
S1133190C182F18D3385B702B385B602B387970236
S11331A0B3869602AE9793540501A69763F3B700CE
S11331B0A29693D50701AE96C165FD15ED8FC207A2
S11331C06D8D3E956367D700631DD700824763FA10
S11331D0A7003306C5403335C5002A93B38666403D
S11331E032858247B306D7403385A740B3B5A700DD
S11331F0B385B640B3975500335575005D8DB3D58F
S113320075009DB3370310007D133111B377B300FC
S113321013D7450126C48E079374F77F1357D5013E
S1133220D98F3377D30013D3460122C61373F37FA8
S113323013D4F5010E0793D5F60106C89356D601AB
S1133240558F0E050E06B38664406314B422635290
S1133250D00E63180302B365C700638A0520938503
S1133260F6FF89E92A963335A600BA97AA973285DC
S11332708544B9A81303F07F639D66009304F07F2F
S113328071AA9305F07F638BB418B70580004D8F46
S1133290B6859306800363CAB608FD4663C1B606C5
S11332A0130300023303B340B3166700B352B600EE
S11332B033166600B3E656003336C000558E3357D6
S11332C0B7002A963335A6003E97B307A700328588
S11332D0370780007D8F6303071485041307F07F8D
S11332E0638BE448370780FF7D17F98F1357150068
S11332F00589598D1397F701598D858305A2938606
S113330005FE93020002B356D700014363885500BB
S113331013030004B305B3403313B7003366C3008B
S11333203336C000558E014769BF598E3336C0000D
S1133330DDBFCDCAB30593408DE4B3E6A700638334
S113334006429386F5FF99E63295BA973336C5005F
S1133350B29739BF9302F07F639D5500BA873285D7
S113336031BF9306F07FE30BD3FEB7068000D58F01
S1133370AE869305800363C3D506FD4563CAD502B3
S113338093020002B382D240B3955700B353D500E1
S113339033155500B3E575003335A0004D8DB3D713
S11333A0D7003295BA973336C500B2979A840DB7D1
S11333B0938506FE93030002B3D5B7008142638868
S11333C0760093020004B386D240B392D70033E56B
S11333D0A2003335A0004D8D8147E1B75D8D3335B3
S11333E0A000DDBF9386140093F5E67FBDE1B3E64C
S11333F0A700A9E4638C0636B366C70085C22A9683
S1133400BA973335A600AA97370780007D8F328597
S113341011C7370780FF7D17F98F8544137775002F
S1133420630D07341377F50091466308D734130707
S113343045003335A700AA973A8581A685D2598ECF
S1133440E30E06E20144B707400001459304F07F10
S11334502DA69305F07F638EB6302A963335A600E9
S1133460BA97AA971395F7010582518D8583B6847F
S113347075B76354D00C631F0306B365C700E5D961
S11334809385F6FF91E93306C5403335C500998F1E
S1133490898F32858544B1A01303F07FE38066DE13
S11334A09306800363C7B608FD4663CEB6041303D0
S11334B000023303B340B3166700B352B6003316A9
S11334C06600B3E656003336C000558E3357B70056
S11334D03306C5403335C5003387E740B307A740FB
S11334E03285B706800033F7D7000DDBFD16FD8E5D
S11334F02A8355AA9305F07FE382B4F2B7058000CE
S11335004D8FB68571BF938605FE93020002B356B4
S1133510D70001436388550013030004B305B34087
S11335203313B7003366C3003336C000558E0147EA
S113353045B7598E3336C000DDBFF9C2B30293409C
S113354095E8B3E6A700638806289386F2FF91EA1C
S11335503305A640B307F7403336A600918F2E8477
S113356015BF9303F07F639F7200BA87328593047B
S1133570F07F7DA09306F07FE309D3FEB7068000B9
S1133580D58F96869302800363C8D206FD4263CE2C
S1133590D20293030002B383D340B392770033542F
S11335A0D50033157500B3E282003335A00033E54E
S11335B0A200B3D7D7003305A640B307F74033368C
S11335C0A600918F9A842E8429BF938206FE130449
S11335D00002B3D25700814363888600930300043A
S11335E0B386D340B393D70033E5A3003335A000AB
S11335F033E5A2008147C1B75D8D3335A000DDBF3F
S11336009386140093F6E67FA5EA33E3A700B36636
S1133610C700A1E8631803006383061CBA873285D8
S11336202E84EDBBE38C06DE3303C540B332650064
S1133630B386E740B3865640B7028000B3F2560023
S1133640638A02003305A640B307F7403336A60069
S1133650918FF9B73365D30063070518B6871A85C8
S113366075BB6318030063820618BA8732852E84FB
S113367031B1E38506C0F9B33303C540B332650005
S1133680B386E740B3865640B7028000B3F25600D3
S1133690638B02063303A640B307F7403336660054
S11336A0B386C7402E84B5C636851AC236C0EF101D
S11336B0404282461243130785FFFD4763C5E70670
S11336C093070002998FB396E600B357F300D58FA2
S11336D03315E30063429708058F13061700FD4670
S11336E063C9C60413070002118FB396E700B355EC
S11336F0C5003315E500CD8E3335A000558DB3D705
S1133700C700814421BB3365D30051FD8147814407
S1133710C9A81A8536C21AC0EF10A03B92460243CC
S11337201305050249BF930785FDB317F30001454F
S113373055B705179305000233D7E70081466307A1
S1133740B60093060004918EB396D700558D333599
S1133750A000598D814775B7998C370780FF7D1775
S1133760F98F6DB9BA873285AE844DB9BA8732857F
S113377075B19304F07F81470145370780007D8F41
S113378011CB85041307F07F6386E406370780FFB7
S11337907D17F98F1397D7010D81598D1307F07F8A
S11337A08D836399E4005D8D814709C5B7070800DF
S11337B00145014413974401B706F07FB207758FA2
S11337C0B1837E04D98FC24033E787003244A244D8
S11337D0BA8551018280BA873285968491B5814732
S11337E00145014459BF8147EDBF01450144B70775
S11337F04000A9B98147014571BF1301C1FD26CC21
S11338002A87B284AA8713D6F50113D545011393E9
S1133810C50006D022CE1375F57F32C41353C300FE
S113382051C59305F07F6308B50E1354D7010E03F9
S1133830B7078000336464005D8C130615C09317CA
S11338403700014313D5460113D7F6019393C600FD
S11338501375F57F3AC693D3C30079CD1307F07F70
S11338606307E51413D7D4018E03B3637700B70657
S11338708000B3E3D30013973400130515C08146C9
S1133880A245B244098E32C213162300A58D558E6B
S11338902EC07D16B94563EDC5129745000093858A
S11338A0E5580A062E9610422E9602863364E300EB
S11338B03DC836C6630003041A853AC21AC0EF1025
S11338C0402102431247B246930555FFF14763CEA8
S11338D0B7027544930785FF0D8C3313F3003354FB
S11338E0870033646400B317F7009305D0C03386B0
S11338F0A54081BF3A851AC23AC0EF10801DB24676
S11339001243024713050502C1B7130485FD33149E
S113391087008147D9BF3364E30011C81A841306B2
S1133920F07F0D4305B781470146054321BF814719
S11339301306F07F094339B733E7930049C363841F
S113394003041E851ACA32C83EC21EC0EF10601896
S11339508243924742465243930255FF7147634262
S11339605704F546130785FFB3865640B393E30027
S1133970B3D6D400B3E376003397E4009306D0C003
S11339803385A640EDBD26851ECA1AC832C23EC084
S1133990EF102014D2434243124682471305050216
S11339A065BF930385FDB39374000147C1BF33E73B
S11339B0930011CB26871305F07F8D46D1B5814343
S11339C00145854675BD81431305F07F89464DBD8C
S11339D063E683006312742C63E0E72C1316F4018E
S11339E093D617001395F7010580B367D600A20399
S11339F093D403013353940213568701336676003C
S1133A00931587001317060141833AC493D607011F
S1133A1033749402330767024204558C9A86637C9C
S1133A20E40032949306F3FF6367C4006375E40013
S1133A309306E3FF3294198CB352940213170601D0
S1133A404183C207C18333749402968333035702BC
S1133A504204C18F63FC6700B2979383F2FF63E76C
S1133A60C70063F567009383E2FFB297C20641641F
S1133A70B3E676001307F4FFB3F2E600B3876740BA
S1133A806D8F13D30601B30357023AC43307E3021D
S1133A903AC613D70501B30257023303E302324790
S1133AA0BA9213D703011697B24263735700229355
S1133AB041647D1493520701618F4207B3F383007D
S1133AC016931E9763E76700B683639E6702637C61
S1133AD0E5022E95B332B500B29296979383F6FF22
S1133AE06366F6006311F602636FB50063E6670070
S1133AF0631BF3006379E5002E959383E6FFB336E9
S1133B00B500B296B697B302E540338367403335C8
S1133B1055003303A3407D5763006610335493026A
S1133B2093170601C18393D6020133878702B377C3
S1133B309302C207D58FA28663FCE700B29793066F
S1133B40F4FF63E7C70063F5E7009306E4FFB29769
S1133B503387E7403353970293170601C1833385B4
S1133B6067021A84B3779702139702014183C2074D
S1133B70D98F63FCA700B2971304F3FF63E7C70070
S1133B8063F5A7001304E3FFB297C206C18E224473
S1133B90898F224593D2060113970601338382024B
S1133BA0418313D405013305A7023307E402B302AA
S1133BB054021A97135405012297637467004163F2
S1133BC09A92135307019A9241637D1333776700E6
S1133BD04207337565003A9563E657006396571AB2
S1133BE036871DC9B2971387F6FF63E1C70263E600
S1133BF05700639A571863FDA5001387E6FF939651
S1133C001500B3B5B6002E96B297B68563945700E7
S1133C106304B5001367170092479387F73F635E09
S1133C20F00A9376770081CE9376F7001146638885
S1133C30C6009306470033B7E600BA933687B70643
S1133C400001B3F6D30089CAB70700FFFD17B3F329
S1133C50F3009247938707409306E07F63C1F6061B
S1133C609396D3010D83558F93D33300B706F07F1A
S1133C70D207F58F8246B2038250724493D3C300B5
S1133C809395F601B3E77700B3E6B700E2443A85CB
S1133C90B68513014102828092460145FD1636C263
S1133CA0B9B32247A2839A863AC03E878D47638E72
S1133CB0F60A85476382F60C8947E39FF6F481434D
S1133CC001479307F07F5DB7B2473EC0C5B7B7035E
S1133CD00800014702C08D46D1BF85469D8E13065C
S1133CE08003634BD6087D46634CD6049247335613
S1133CF0D7009385E741B397B3003317B700D18F4B
S1133D003337E0005D8FB3D3D3009377770081CF4F
S1133D109377F70091466388D7009306470033B73B
S1133D20E600BA933687B7078000B3F7F300A1EB38
S1133D309397D3010D835D8F93D3330081473DB7B0
S1133D400556B307F64013060002B3D7F3008145C6
S1133D506387C60092469385E643B395B3004D8FBF
S1133D603337E0005D8F81434DB7B7030800014747
S1133D709307F07F02C0DDBD81430147C1B7814392
S1133D8001478547E5B5BA86368769B5B707100098
S1133D90FD175111B3F2B70013D74501FD8122C4B9
S1133DA026C22A832A842EC01377F77F93D546012F
S1133DB01305F07FF58FB28493F5F57FFD82631AC6
S1133DC0A700B3E362000545639A03026398E50222
S1133DD019A06395A5005D8E05450DE20545631F99
S1133DE0B700639DF200631B94008247638CD70085
S1133DF06316070033E562003335A0002244924481
S1133E00310182800145DDBF3707100061117D1744
S1133E1013D34501B372B70022C226C0AA87AA836E
S1133E201373F37F13D5F5019304F07F93D5460103
S1133E30758F328493F5F57FFD8263179300B3E4A5
S1133E40F200A5C8795525A863959500B364C70009
S1133E50F5F863120306B3E7F20093B7170099E18C
S1133E60598E39C2639A07006314D50063DD650077
S1133E70630A05027D5521A07D5591C23685124401
S1133E808244210182806355B300E31A05FEDDB745
S1133E90E36057FE639CE200E36C74FCE3E783FE9B
S1133EA00145F1BF0545E1BFE5FFD9B7E3EFE2FC0A
S1133EB0C5BFE38D65F8E39905FA814755B7370720
S1133EC0100061117D1713D34501B372B70022C2EC
S1133ED026C0AA87AA831373F37F13D5F50193042D
S1133EE0F07F93D54601758F328493F5F57FFD827B
S1133EF063179300B3E4F200A5C8094525A86395A8
S1133F009500B364C700F5F863120306B3E7F20043
S1133F1093B7170099E1598E39C2639A0700631465
S1133F20D50063DD6500630A05027D5521A07D553A
S1133F3091C2368512448244210182806355B300C4
S1133F40E31A05FEDDB7E36057FE639CE200E36C11
S1133F5074FCE3E783FE0145F1BF0545E1BFE5FFDE
S1133F60D9B7E3EFE2FCC5BFE38D65F8E39905FA41
S1133F70814755B7130181FD93D2450193D7F501CC
S1133F8022D01393C50006D226CE93F2F27F3EC40C
S1133F902A841353C300638802089307F07F63875E
S1133FA0F20E9357D5010E0333E36700B707800081
S1133FB03363F30093153500938212C0814413D503
S1133FC0460193D7F6011394C6001375F57F3EC6D8
S1133FD0318071CD9307F07F6304F5149357D601B4
S1133FE00E045D8CB70780005D8C13173600130533
S1133FF015C081473246A246B18E36C0B386A200B0
S113400036C8850636C293962400DD8EFD163946E1
S11340106369D61217460000130606E58A06B296AF
S11340209442B2968286B365A300ADC936C632C245
S1134030630F03021A851AC0EF00B0290243124627
S1134040B246130755FFF14763CCE702F5479305E2
S113405085FF998F3313B300B357F40033E367003C
S1134060B315B4009302D0C0B382A24081BF1AC07A
S1134070EF003026B2461246024313050502D1B7BB
S1134080130385FD331364008145E9BFB365A300C1
S113409091C9AA859302F07F8D4415B701438142EB
S11340A0854431BF01439302F07F894409BF3367DC
S11340B0C4003DCF63020404228532CA1AC82EC24A
S11340C016C0EF00102182429245424352469306A5
S11340D055FFF14763C0D704F547130785FF958F54
S11340E03314E400B357F6005D8C3317E6009307EE
S11340F0D0C03385A740F5BD32851ACA2EC816C272
S113410032C0EF00101D5243C245924202461305CD
S1134110050275BF130485FD331486000147C1BF32
S11341203367C40011CB32871305F07F8D47D9B5AF
S11341300144014585477DBD01441305F07F89474E
S113414055BD13D6050193540701B3069602C16702
S1134150FD17FD8D7D8FB303E60236C4B386B4022A
S11341603385E5029E96B68293560501969663F7CB
S11341707600B3039602C1629E9216C493D20601DE
S1134180FD8E7D8DC206AA96E18F13550401B303FB
S1134190F60236CAB386F502B305B50213D4060196
S11341A09E95A2953306A60263F47500C1631E961C
S11341B093D305011E9632C641669303F6FFB3F509
S11341C07500B3F67600C205B695B386B200935275
S11341D0030133737300B303670236CC3387E202FF
S11341E0B386640233845402BA9693D40301A69628
S11341F063F3E600329413D6060141672296130452
S1134200F7FFB3846702E18EC206B3F383009E9680
S1134210B387F20233036502B30255023E9313D50A
S113422004012A936373F300BA926247A24741657B
S11342307D15BA973377A3004207E98CBA943247C5
S1134240B3B5B700B697BA943385B400B3B6D70004
S11342503304C500B303D400B3B4E400B335B500EC
S1134260B3B6D300C58D135303013334C400558C46
S11342709A952E94D246A29213D773011394920066
S1134280598C13979700558FDD833337E0005D8F8A
S1134290B7070001A603E18F33677700DDC79357A3
S11342A01700058B5D8F9317F4015D8F058092478E
S11342B09387F73F635EF0089376770081CE937619
S11342C0F70011466388C6009306470033B7E6003B
S11342D03A943687B7060001E18E81CAB70700FF1A
S11342E0FD177D8C9247938707409306E07F63CE4A
S11342F0F60E9316D4010D83558F0D80B706F07F0B
S1134300D2073204F58F31805D8C82479250F2449B
S1134310FE07B366F40002543A85B68513018102A0
S11343208280A2473EC01A842E87A6878946638E60
S1134330D70A8D466384D70A8546E39AD7F60144A3
S11343400147B5A0B24636C0D5B7C2473EC285B70D
S113435005461D8E93068003E3C3C6FEFD4663CA6D
S1134360C6049247B355C7009387E741B316F400D8
S11343703317F700CD8E3337E000558F3354C40024
S11343809377770081CF9377F70091466388D700BE
S11343909307470033B7E7003A943E87B707800096
S11343A0E18FA9EB9317D4010D835D8F0D808147B5
S11343B0B1B78556B387F64093050002B357F400AE
S11343C081466307B60092469386E643B316D4004B
S11343D0558F3337E0005D8F01445DB73704080023
S11343E001479307F07F02C011BF014401479307BF
S11343F0F07F29B701440147854709B73703100007
S11344007D133111B377B30013D7450126C48E074A
S11344109374F77F1357D501D98F3377D30022C60E
S113442013D3460113D4F5010E079355D6014D8FCE
S113443006C81373F37F9305F07F0E05FD820E0605
S11344406315B300B365C70099E193C61600B38240
S11344506440639586226352500E63180302B36668
S1134460C700638F06569385F2FF89E92A96333590
S1134470A600BA97AA9732858544B9A89306F07F17
S1134480639DD2009304F07F79AA9306F07F638C36
S1134490D418B7068000558F96859306800363CAA7
S11344A0B608FD4663C1B606130300023303B340E6
S11344B0B3166700B352B60033166600B3E656006F
S11344C03336C000558E3357B7002A963335A600CD
S11344D03E97B307A7003285370780007D8F6304BA
S11344E0071485041307F07F638CE448370780FFC3
S11344F07D17F98F135715000589598D1397F70107
S1134500598D85830DA2938605FE93020002B3564E
S1134510D70001436388550013030004B305B34077
S11345203313B7003366C3003336C000558E0147DA
S113453069BF598E3336C000DDBF638A020AB305F2
S113454093408DE4B3E6A700638306429386F5FFA8
S113455099E63295BA973336C500B29731BF9302C4
S1134560F07F639D5500BA87328529BF9306F07F9B
S1134570E30BD3FEB7068000D58FAE869305800388
S113458063C3D506FD4563CAD50293020002B38214
S1134590D240B3955700B353D50033155500B3E556
S11345A075003335A0004D8DB3D7D7003295BA9737
S11345B03336C500B2979A8405B7938506FE9303F4
S11345C00002B3D5B70081426388760093020004E9
S11345D0B386D240B392D70033E5A2003335A000AE
S11345E04D8D8147E1B75D8D3335A000DDBF9386E6
S11345F0140093F5E67FBDE1B3E6A700A9E4638C5C
S11346000636B366C70085C22A96BA973335A60024
S1134610AA97370780007D8F328511C7370780FF3F
S11346207D17F98F854413777500630D073413776D
S1134630F50091466308D734130745003335A700C6
S1134640AA973A8581A685D2598EE30D06E20144E4
S1134650B707400001459304F07F2DA69305F07F32
S1134660638EB6302A963335A600BA97AA97139567
S1134670F7010582518D8583B68475B76355500C57
S113468063100308B366C700638C06349385F2FF96
S113469091E93306C5403335C500998F898F32853A
S11346A08544B1A09306F07FE38ED2DC93068003A9
S11346B063C7B608FD4663CEB60413030002330392
S11346C0B340B3166700B352B60033166600B3E6C0
S11346D056003336C000558E3357B7003306C540F5
S11346E03335C5003387E740B307A7403285B705A4
S11346F0800033F7B70005DBFD15FD8D2A835DAA25
S11347009306F07FE381D4F2B7068000558F968537
S113471071BF938605FE93020002B356D70001438E
S11347206388550013030004B305B3403313B70083
S11347303366C3003336C000558E014745B7598EE2
S11347403336C000DDBF6384020CB302934095E8A6
S1134750B3E5A700638805289385F2FF91E9330543
S1134760A640B307F7403336A600918F36840DBFB9
S11347709303F07F639F7200BA8732859304F07FBE
S11347807DA09305F07FE309B3FEB7058000CD8FCC
S113479096859302800363C8B206FD4263CEB202DB
S11347A093030002B383B340B39277003354B5004C
S11347B033157500B3E282003335A00033E5A2005F
S11347C0B3D7B7003305A640B307F7403336A60086
S11347D0918F9A84368421BF938205FE13040002CC
S11347E0B3D2570081436388850093030004B385E3
S11347F0B340B393B70033E5A3003335A00033E5EA
S1134800A2008147C1B75D8D3335A000DDBF93851C
S1134810140093F5E57FA5E933E3A700B365C7006A
S1134820A1E8631803006383051CBA8732853684C4
S1134830DDBBE38A05DE3303C540B3326500B385CF
S1134840E740B3855540B7028000B3F25500638A50
S113485002003305A640B307F7403336A600918F14
S1134860F9B73365B30063070518AE871A8565BBCE
S11348706318030063820518BA873285368419B138
S1134880E38205C0E9B33303C540B3326500B385A1
S1134890E740B3855540B7028000B3F25500638A00
S11348A002063303A640B307F74033366600B385E8
S11348B0C7403684ADC52E851AC22EC0192C824538
S11348C01243130785FFFD4763C4E70693070002FD
S11348D0998FB395E500B357F300CD8F3315E300FB
S11348E063419708058F13061700FD4663C8C60485
S11348F013070002118FB396E700B355C5003315B3
S1134900E500CD8E3335A000558DB3D7C700814463
S113491019BB3365B30059FD81478144D1A81A8579
S11349202EC21AC07D22924502431305050251BFCF
S1134930930785FDB317F30001455DB7051793058C
S1134940000233D7E70081466307B60093060004EC
S1134950918EB396D700558D3335A000598D81477C
S11349607DB7998C370780FF7D17F98F6DB9BA87AA
S11349703285AE844DB9BA87328575B19304F07F20
S113498081470145370780007D8F11CB85041307CC
S1134990F07F6388E406370780FF7D17F98F13974C
S11349A0D7010D81598D1307F07F8D836399E4003E
S11349B05D8D814709C5B707080001450144139778
S11349C04401B706F07FB207758FB1837E04D98F97
S11349D0C24033E787003244A244BA855101828041
S11349E0968491B1BA873285968491B58147014501
S11349F0014449BF8147EDBF01450144B707400069
S1134A0099B98147014561BF13D74501B706100025
S1134A109387F6FF1377F77F1306E03FED8FFD8151
S1134A206354E6041306D0416358E600370500805A
S1134A301345F5FF2E958280D58F93063043998ECA
S1134A407D46634DD6001307D7BEB397E7003355B1
S1134A50D5005D8D99C93305A0408280130530418E
S1134A60198D33D5A700FDB701458280511106C4C5
S1134A7022C226C021CD9357F54133C4A7001D8C13
S1134A809354F5012285B1201307E041A947098F0A
S1134A9063C8A702AD47898F5505B357F400331493
S1134AA0A4002685B2075207B1837E05D98FA240A0
S1134AB033E7A700228512448244BA8531018280FB
S1134AC05515B317A40026850144E9BF0147814762
S1134AD0E5BFC1676376F5029307F00FB3B7A7008C
S1134AE08E07130700021D8F3355F500973700001A
S1134AF09387473B3E95034505003305A7408280D5
S1134B0037070001C147E36EE5FCE147D9BF17450C
S1134B1000000325A5708280511126C206C4AA8410
S1134B2019C11C5D85C3DC41FD17DCC163C40702E8
S1134B309C41A24092441387170098C103C5070003
S1134B40310182802EC0FD2C8245DC41FD17DCC181
S1134B50E3D007FEA2402685924431016F00B05E87
S1134B60511122C226C006C49744000083A4046BDA
S1134B702A8499C09C5C8DC35C40FD175CC063C4EF
S1134B8007021C40A24082441387170018C0124435
S1134B9003C507003101828026856D245C40FD1722
S1134BA05CC0E3D007FEA2851244A240268582445D
S1134BB031016F005059014582809725000093858B
S1134BC0059019AE01458280411106C622C426C251
S1134BD0404197060000938686FE54DD1307C52ED8
S1134BE08D462322D52E2324E52E2320052E11477E
S1134BF02AC058C4214681452322040623200400E8
S1134C00232204002324040023280400232A04006C
S1134C10232C04001305C405EF00D04782479712E4
S1134C200000938282DE171300001303C3E184475C
S1134C3097160000938686E617170000130727EAE5
S1134C404165232054022322640214D458D440CC56
S1134C502505C8C42146814523A2040623A00400D7
S1134C6023A2040023A4040023A8040023AA04000C
S1134C7023AC04001385C405EF00D041824797128A
S1134C800000938282D8171300001303C3DBC047CC
S1134C9097160000938686E017170000130727E491
S1134CA03706020023A0540223A2640294D4D8D469
S1134CB0C4CC490650C42322040623200400232222
S1134CC004002324040023280400232A0400232CA2
S1134CD004001305C40521468145EF00B03B82471B
S1134CE0171700001307A7DF971200009382E2D181
S1134CF017130000130323D597160000938606DAD2
S1134D0058D440CC232054022322640214D4B24049
S1134D102244054798DF924441018280411126C212
S1134D20130680069384F5FFB384C4022EC022C404
S1134D3006C693854407012E2A8401CD8247310596
S1134D40232004005CC008C4138684068145EF0058
S1134D507034B24022852244924441018280411140
S1134D6022C417440000032464591C5C26C206C6EE
S1134D70AA84B5CF1303042EFD56832743000324CE
S1134D808300FD1763D70700B1A813048406638B5F
S1134D90D7040317C400FD176DFBC17785072322D1
S1134DA004062320040023220400232404005CC4FA
S1134DB023280400232A0400232C040021468145CF
S1134DC01305C405EF00102D23280402232A04022E
S1134DD02322040423240404B2402285224492445E
S1134DE0410182800324030011C4228379B7228500
S1134DF0E13B49B79305C01A26851AC0A92402438A
S1134E002A841DC131059147232004005CC008C4D5
S1134E101306001A81451AC0EF00D0270243FD563D
S1134E2023208300228391BF23200300B1479CC029
S1134E3065B797150000938585681745000003251D
S1134E40E54B59A81C5D91C38280BDBB82808280E2
S1134E508280828097050000938525D6174500003F
S1134E600325C53B11A8970500009385E5D5174593
S1134E7000000325A53A09A011119307052E22CAA3
S1134E8026C806CC2EC43EC681447D54B247D843BE
S1134E909C477D176348070203D6C70085467D17E4
S1134EA063FEC6008396E7003E85638986003EC2A2
S1134EB0A2473AC0829792470247C98C93878706D4
S1134EC0E31C87FCB2479C433EC6E9F3E2405244EC
S1134ED02685C2447101828001119307052E22CCDC
S1134EE026CA06CEAA832EC63EC881447D54C24734
S1134EF0D8439C477D17634B070203D6C7008546FA
S1134F007D1763F1C6028396E700BE851E85638B19
S1134F1086003EC2B2471EC43AC08297A24392475B
S1134F200247C98C93878706E31987FCC2479C43D1
S1134F303EC8D5FFF24062442685D2440561828092
S1134F40B387C602130141FD22D23684740036CAE7
S1134F50854626D02EC606D436CC3EC83ECE3283F5
S1134F60AA84BA8519C1185D29C70397C500931689
S1134F70270163CB0600F4510966518F79767D16BB
S1134F80F18E2396E500F4D1500826851AC23EC05E
S1134F90EF10D02E01C972448247124333848740F4
S1134FA033546402A2502285125482541301C10264
S1134FB082802EC43EC032C27135A245124382475C
S1134FC06DB7130141FD26D0B384C5022A873AC6C2
S1134FD078003ACA054722D206D4174500000325B3
S1134FE0E5233ACC26C826CEAE873284B68519C1CD
S1134FF0185D31C30397C5009316270163CB0600E0
S1135000F4510966518F79767D16F18E2396E50069
S1135010F4D150083EC0EF10702619C5724482477F
S1135020338484403354F402A250228512548254AF
S11350301301C10282803EC22AC036C42135A24572
S11350409247024545BF130141FD06D422D226D022
S11350509387B50059472A86636CF704C14763E414
S1135060B7182AC0EF00F00D0246C144E147894554
S113507017430000130303DA9A97C043138787FF8B
S11350806303E4185C4054440C44F19BA297D84356
S1135090D4C58CC6136717003285D8C3EF00900AB5
S11350A0A25013058400125482541301C102828059
S11350B093F487FF63C9071263E7B4122AC0EF00B1
S11350C050089307701F024663F8973813D594006D
S11350D063040512914763E0A73213D56400930576
S11350E095039396350013058503174300001303B6
S11350F063D29A96C042E11663808602BD4231A013
S11351006357072A4044638986005C40F19B3387D8
S11351109740E3D7E2FEAA850324030197400000E9
S11351209380C0CF630D140E5C40BD46F19B338762
S1135130974063C2E634232A1300232813006352E2
S113514007321307F01F6367F72613F787FF21075A
S1135150032543001A97144393D257008547B39706
S11351605700C98F130587FF48C414C42322F300D2
S113517000C3C0C613D7254005453315E50063E9D0
S1135180A70A3377F50001EF0605F1993377F500A7
S1135190910511E706053377F500910565DFBD43F9
S11351A02AC232C0939735003306F30032855C453A
S11351B0AE826302F526D8433E84DC47719BB30676
S11351C0974063C1D326E3C606FE229754430C449A
S11351D0024693E6160054C3DCC532858CC79D276E
S11351E01305840021A0B1471CC20145A2501254EA
S11351F082541301C10282809306002093050004A7
S11352001305F003DDB5C0478905E39D87E6032454
S1135210030197400000938060C0E31714F08327D4
S1135220430013D7254005453315E500E3FBA7F4F8
S1135230032483005840719B63679700B30697402B
S1135240BD4763C3D71497430000938363FD83A5CD
S11352500300B307E4003EC0FD569747000083A750
S1135260A7FFA6976383D52C8566BD06B697FD7602
S1135270F58FBE8532851AC83AC63EC432C2812F24
S1135280FD551246A24732474243AA86974300007F
S1135290938303F96301B5228245636CB520974279
S11352A00000938262F883A502008240BE9523A089
S11352B0B2002E856384D03083A00300FD5563893A
S11352C0B0308245B385B6402E9523A0A20093F357
S11352D0760016CC1ACA3AC863850326B38676408C
S11352E08560A10693858000B697B38575409D8D32
S11352F0FD10B3F5150032851EC636C43EC232C059
S11353002ECEF125FD5002469247A246B2434247B3
S11353105243E24263011530F245B307D540AE97DC
S113532003A502002324D30093E71700AA9523A022
S1135330B200DCC26301642A3D456370E52A83231D
S11353404400930747FFE19B13F713005D8F58C098
S113535095433307F4002322770023247700636105
S1135360F52CDC423684174700001307A7EE1443DC
S113537063F3B6000CC317470000130767ED14432B
S113538063FEB6120CC31DAA93E714005CC0A2947A
S11353902324930093E61600D4C032856523A250DB
S11353A013058400125482541301C10282805444B0
S11353B00C44E9B993D6970011476374D70E51474B
S11353C0636BD71A1385C6050E059386B6051A9521
S11353D018416115630DE5145443F19A63F5D70040
S11353E01847E31BE5FE48478327430048C418C415
S11353F000C540C741B3D14763FEA70C93074005DE
S113540063E7A71813D5C4009305F50693963500F2
S11354101305E506D9B9850293F732002105F1C7D2
S11354205C4541BB0C4413E5140048C0DCC58CC783
S1135430A2940246232A93002328930093E716009C
S113544023A6140023A41400DCC02297328514C3BD
S1135450D5291305840059BB93D534009387840060
S113546001B9A297D843328513671700D8C3D92945
S113547013058400A5BB93E6140054C0A294232A08
S11354809300232893009366170023A6140023A4F3
S11354901400D4C0A297328598C36D2113058400EB
S11354A0B1B393D66700138596030E0593868603DE
S11354B039BF630B640E032483005C40F19BB38605
S11354C0974063E59700BD47E3C0D7EC32859D293B
S11354D0014529BB9305C505939635001305B5050C
S11354E029B11C46FD156396C71893F7350061165C
S11354F0EDFB92470327430093C7F7FFF98F23225D
S1135500F30012479316170036C263E7D716638574
S1135510061633F7F60001EB36870607B376F70075
S11355209102E5DE3AC29685B5B9C10799B38327DE
S1135530430089868542B396D200D58F2322F30097
S113554075B5B385F600B305B040D205D181328577
S11355503EC636C42EC232C09D29FD530246924532
S1135560A246B24742475243E2426304750AB30774
S1135570D540AE9775B3130740056363D70693D63A
S1135580C7001385F6060E059386E60689B59307CC
S1135590401563E3A70613D5F40093058507939696
S11355A035001305750791B6974200009382C2C770
S11355B003A502003E9523A0A200FDB9D200E39DFD
S11355C000CE03248300BA9793E717005CC061BB45
S11355D023A0D300EDB9368479B38547DCC2FDB589
S11355E013074015636FD70493D6F7001385860716
S11355F00E0593867607E1BB9307405563EFA70436
S113560013D524019305D507939635001305C507D3
S1135610E9BC814531B3E1139E97958F814509B368
S113562093058400328516C41AC232C0EF102021BB
S11356301243A24202460324830083A502005C4075
S11356401DB3130740556361D70293D62701138511
S1135650D6070E059386C6079DBB9306803F930528
S1135660F0071305E00751B41305803F9306E007E4
S1135670B9BB8327430071B502465DBEB3C7A5001D
S11356808D8BB306C500B9E38D4763F1C704137767
S11356903500AA8721EB13F7C6FF130607FE63E75D
S11356A0C70663F2E7022E833E86832203001106B7
S11356B01103232E56FEE36AE6FE7D171D8F719BB0
S11356C01107BA97BA9563E6D7008280AA87637EEA
S11356D0D50203C7050085078505A38FE7FEE3EA26
S11356E0D7FE828003C60500850713F73700A38F12
S11356F0C7FE85054DD303C60500850713F737009C
S1135700A38FC7FE850579FF79B78280711122C006
S1135710804183A3850083A2C50080C3C04103A345
S1135720050123A47700C0C3C04923A6570023A8BA
S11357306700C0CB804D938747029385450223AA17
S113574087FE03A485FF23AC87FE03A4C5FF23AE15
S113575087FEE3EFC7FA63F2E7022E833E868322D5
S1135760030011061103232E56FEE36AE6FE7D179D
S11357701D8F719B1107BA97BA9563E5D700024450
S11357801101828003C7050085078505A38FE7FE05
S1135790E3F7D7FE03C7050085078505A38FE7FE5A
S11357A0E3E2D7FEE9BF63F2A502B387C500637ED7
S11357B0F5003307C5000DC283C6F7FFFD177D173B
S11357C02300D700E39AF5FE8280BD4763E7C70054
S11357D0AA879306F6FF09EA8280B3E7A5008D8BBA
S11357E099CF9306F6FFAA878506BE9603C70500E0
S11357F085078505A38FE7FEE39AD7FE828093028F
S113580006FF93F202FFC102330355002E87AA87D5
S113581014434107C10723A8D7FE832647FF23AAC1
S1135820D7FE832687FF23ACD7FE8326C7FF23AE8C
S1135830D7FEE31FF3FC1377C60096951373F600A7
S113584021CB711122C02E87BE820D448323070011
S11358501107B306E34023A07200AE969102E367FA
S1135860D4FE1307C3FF719B0D8A11079306F6FF3D
S1135870BA978506BA95BE9609CA03C70500850777
S11358808505A38FE7FEE39AD7FE024411018280C7
S11358901A8681B73D432A876375C3029377F7005D
S11358A0C9E363970506937606FF3D8ABA960CC34F
S11358B04CC30CC74CC74107E36BD7FE6313060008
S11358C08280B306C3408A069702000096966780DA
S11358D0A6002307B700A306B7002306B700A30555
S11358E0B7002305B700A304B7002304B700A3033C
S11358F0B7002303B700A302B7002302B700A30134
S1135900B7002301B700A300B7002300B7008280CB
S113591093F5F50F93968500D58D93960501D58D56
S113592059B7939627009702000096968682E780DF
S113593086FA9680C1171D8F3E96E374C3F895B717
S1135940000082808280511122C226C006C4AA842B
S11359502E8419C11C5D85C7A2852685EF10103FD2
S113596015E118405C4093061700FD175CC014C095
S113597003450700A2401244824431018280EFF0C3
S11359806FCCD9BF7D55FDB7411122C406C62A8408
S1135990174500000325858819C11C5D95C3A285A0
S11359A0EF10D03A1DE118405C4093061700FD1734
S11359B05CC014C003450700B24022444101828008
S11359C02AC0EFF02FC80245D9BF7D55F5B7511154
S11359D022C22A842E859747000023A1078806C483
S11359E0EF20C00DFD576306F500A24012443101BB
S11359F082809747000083A76786E5DBA2401CC02E
S1135A00124431018280511122C22E848395E50013
S1135A1006C4EF102054634905003C48A240AA97ED
S1135A203CC81244310182808357C4007D777D17BE
S1135A30F98FA2402316F4001244310182800145FB
S1135A4082808397C500311122C626C406C893F20A
S1135A5007102E84AA848395E500328736836390E9
S1135A600202FD76FD16F58F2316F4003244C2407F
S1135A702685A2449A863A8651016F00501536C293
S1135A8032C089460146EF10603F8317C400831576
S1135A90E40012430247F1B7511122C22E848395C8
S1135AA0E50006C4EF10803DFD57630DF5008357F4
S1135AB0C4000567A240D98F28C82316F4001244F5
S1135AC0310182808357C4007D777D17F98FA2400E
S1135AD02316F4001244310182808395E5006F009F
S1135AE0F01293F6F50F93773500C9CE638B070058
S1135AF083470500D1C76386D7080505937735002A
S1135B00E5FB93F5F50F139385001841B3E56500A4
S1135B10139305013363B3003706FFFEB345E30077
S1135B201306F6EFB387C500B302C70093C5F5FFAC
S1135B301347F7FFED8F33F7E200B7858080D98FE5
S1135B4093850508ED8F85E758411105B342670039
S1135B50B307C700B383C2001347F7FF93C2F2FF32
S1135B60F98FB3F25300B3E75700ED8FF1DF8347AA
S1135B70050099C76381F606834715000505FDFBFB
S1135B800145828081CB83470500E5DF05059377D6
S1135B903500F5FB18413706FFFE1306F6EFB30791
S1135BA0C700B78680801347F7FFF98F93860608EE
S1135BB0F58F91EB58411105B307C7001347F7FF61
S1135BC0F98FF58FE5DB83470500C5DF83471500B3
S1135BD00505EDFF82808280B367B5008D8BB1EF40
S1135BE09841B7867F7F9386F6F7B377D700B69749
S1135BF0D98FD58F7D56639BC7042A867D5318C2DF
S1135C00D84191051106B377D700B697D98FD58FB0
S1135C10E38767FE83C7050003C7150083C6250015
S1135C202300F60099C7A300E60001C72301D600AC
S1135C3091E28280A30106008280AA8703C705003F
S1135C4085078505A38FE7FE75FB82802A86D9B771
S1135C500000AE871307E008B285636DF7001736BE
S1135C600000130626A4139327003293032703008E
S1135C7032970287511106C4638F063236863E85F9
S1135C80A92763050532A24031018280173500003F
S1135C90130505988280173500001305E595828069
S1135CA0173500001305C5908280173500001305D1
S1135CB0A5918280172500001305C54F82801735F2
S1135CC000001305258B8280172500001305C5717C
S1135CD08280173500001305A599828017250000DE
S1135CE01305C5398280172500001305A535828068
S1135CF0173500001305058F828017350000130542
S1135D00A5948280172500001305856382801725DA
S1135D10000013056556828017250000130505430E
S1135D208280172500001305655282801725000024
S1135D301305C5408280173500001305A5948280A1
S1135D40172500001305C54482801725000013059C
S1135D50656182801735000013054583828017250D
S1135D6000001305A57F8280172500001305057C1C
S1135D708280172500001305E5798280172500002D
S1135D80130545778280172500001305A5748280CA
S1135D9017250000130505718280172500001305DF
S1135DA0256E8280172500001305857982801735BA
S1135DB00000130525878280172500001305C56A96
S1135DC0828017250000130565688280172500006E
S1135DD013058566828017250000130525648280DB
S1135DE0172500001305C5628280172500001305DE
S1135DF0E5608280172500001305055E8280172563
S1135E0000001305E55B8280172500001305055A81
S1135E108280172500001305E557828017250000AE
S1135E201305C5678280172500001305A5558280D8
S1135E3017250000130585548280172500001305DB
S1135E40A5518280172500001305454E8280172531
S1135E5000001305E54B8280172500001305054A51
S1135E6082801725000013056546828017250000EF
S1135E7013050545828017250000130565438280BC
S1135E8017250000130545418280172500001305DE
S1135E90A53F8280172500001305853C82801725C5
S1135EA000001305A5398280172500001305053865
S1135EB08280172500001305E53582801725000030
S1135EC0130545338280172500001305A530828011
S1135ED0172500001305852A828017250000130565
S1135EE0E5288280172500001305452482801725A4
S1135EF000001305A5228280172500001305C52084
S1135F008280172500001305651F82801725000075
S1135F101305451D8280172500001305E51B8280AB
S1135F20172500001305051A8280172500001305A4
S1135F302518828017250000130545168280172531
S1135F4000001305E5128280172500001305451192
S1135F508280172500001305A50D828017250000F7
S1135F601305C50B8280172500001305650982807F
S1135F701725000013050508828017250000130566
S1135F80E505828017250000130545048280172546
S1135F9000001305E5018280172500001305057034
S1135FA08280172500001305E5FF82801725000075
S1135FB01305850EC9B9AA86D1B1AA8581460146C1
S1135FC0173500000325852569B1AA858146014658
S1135FD01735000003258524ADB9000093773500FB
S1135FE02A879DEFB7867F7F9386F6F7FD5510438A
S1135FF01107B377D600B697D18FD58FE389B7FE53
S11360008346C7FF0346D7FF8347E7FF098F95C63B
S1136010630206023335F0003A9579158280F9D28D
S113602083470700050793763700F5FB098F1305AF
S1136030F7FF82801305D7FF82801305C7FF828094
S1136040000011112AC822CC26CA2E872EC432C0C1
S1136050173500001305D58883470700BA8505075F
S11360603306F50003460600218A7DF61306D002A6
S11360706380C70E1306B0026380C706B7040080AE
S113608093C4F4FF02C6BDC241463684638BC60C7A
S113609033F68402814501452543E543B3D28402A6
S11360A032C2138607FD6378C3001386F7FB63E8E7
S11360B0C304138697FC635CD60463C00504FD55D2
S11360C063E8A2006386A2068545330585023295FE
S11360D005078347F7FFF1B7B704008002C683477B
S11360E0070093C4F4FF13872500D9FE9306000329
S11360F0638DD7082944A94661BFFD55D1BF1386D6
S1136100F7F963E6C300138697FAE348D6FA63C542
S11361100502B24799C33305A040824791C76391F2
S113612005088247224798C36244D24471018280A1
S11361309247E3CFC7F849BFC2469307200226859A
S11361409CC28247F5D39307F7FF3EC42685D1BF8F
S1136150054683470700B70400801387250032C62D
S11361601DB713060003639AC7000346070093058F
S113617080051376F60D6304B600414411BF8347CE
S1136180170041440907C14621B783460700130697
S1136190800593F6F60DE384C6FE2144A146CDBDE9
S11361A0AA8455B705476387E60013074002636373
S11361B0D70041BD511106C4EFE07F95A240D947F5
S11361C01CC10145310182808547630EF6009307A7
S11361D0400263EAC700B2862E86AA8517350000FE
S11361E00325C503B9BD511106C4EFE05F92A24077
S11361F0D9471CC10145310182808547630EF600F1
S11362009307400263EAC700B2862E86AA85173533
